{
  "_format": "hh-sol-artifact-1",
  "contractName": "TipJar",
  "sourceName": "contracts/TipJar.sol",
  "abi": [
    {
      "inputs": [],
      "stateMutability": "nonpayable",
      "type": "constructor"
    },
    {
      "anonymous": false,
      "inputs": [
        {
          "indexed": true,
          "internalType": "address",
          "name": "from",
          "type": "address"
        },
        {
          "indexed": false,
          "internalType": "uint256",
          "name": "amount",
          "type": "uint256"
        },
        {
          "indexed": false,
          "internalType": "string",
          "name": "message",
          "type": "string"
        }
      ],
      "name": "NewTip",
      "type": "event"
    },
    {
      "anonymous": false,
      "inputs": [
        {
          "indexed": true,
          "internalType": "address",
          "name": "owner",
          "type": "address"
        },
        {
          "indexed": false,
          "internalType": "uint256",
          "name": "amount",
          "type": "uint256"
        }
      ],
      "name": "Withdrawal",
      "type": "event"
    },
    {
      "inputs": [],
      "name": "getBalance",
      "outputs": [
        {
          "internalType": "uint256",
          "name": "",
          "type": "uint256"
        }
      ],
      "stateMutability": "view",
      "type": "function"
    },
    {
      "inputs": [
        {
          "internalType": "uint256",
          "name": "count",
          "type": "uint256"
        }
      ],
      "name": "getLatestTips",
      "outputs": [
        {
          "internalType": "address[]",
          "name": "from",
          "type": "address[]"
        },
        {
          "internalType": "uint256[]",
          "name": "amounts",
          "type": "uint256[]"
        },
        {
          "internalType": "string[]",
          "name": "messages",
          "type": "string[]"
        },
        {
          "internalType": "uint256[]",
          "name": "timestamps",
          "type": "uint256[]"
        }
      ],
      "stateMutability": "view",
      "type": "function"
    },
    {
      "inputs": [
        {
          "internalType": "uint256",
          "name": "tipId",
          "type": "uint256"
        }
      ],
      "name": "getTip",
      "outputs": [
        {
          "internalType": "address",
          "name": "from",
          "type": "address"
        },
        {
          "internalType": "uint256",
          "name": "amount",
          "type": "uint256"
        },
        {
          "internalType": "string",
          "name": "message",
          "type": "string"
        },
        {
          "internalType": "uint256",
          "name": "timestamp",
          "type": "uint256"
        }
      ],
      "stateMutability": "view",
      "type": "function"
    },
    {
      "inputs": [],
      "name": "getTotalTips",
      "outputs": [
        {
          "internalType": "uint256",
          "name": "",
          "type": "uint256"
        }
      ],
      "stateMutability": "view",
      "type": "function"
    },
    {
      "inputs": [
        {
          "internalType": "address",
          "name": "user",
          "type": "address"
        }
      ],
      "name": "getUserTipIds",
      "outputs": [
        {
          "internalType": "uint256[]",
          "name": "",
          "type": "uint256[]"
        }
      ],
      "stateMutability": "view",
      "type": "function"
    },
    {
      "inputs": [],
      "name": "owner",
      "outputs": [
        {
          "internalType": "address",
          "name": "",
          "type": "address"
        }
      ],
      "stateMutability": "view",
      "type": "function"
    },
    {
      "inputs": [
        {
          "internalType": "string",
          "name": "message",
          "type": "string"
        }
      ],
      "name": "tip",
      "outputs": [],
      "stateMutability": "payable",
      "type": "function"
    },
    {
      "inputs": [
        {
          "internalType": "uint256",
          "name": "",
          "type": "uint256"
        }
      ],
      "name": "tips",
      "outputs": [
        {
          "internalType": "address",
          "name": "from",
          "type": "address"
        },
        {
          "internalType": "uint256",
          "name": "amount",
          "type": "uint256"
        },
        {
          "internalType": "string",
          "name": "message",
          "type": "string"
        },
        {
          "internalType": "uint256",
          "name": "timestamp",
          "type": "uint256"
        }
      ],
      "stateMutability": "view",
      "type": "function"
    },
    {
      "inputs": [
        {
          "internalType": "address",
          "name": "newOwner",
          "type": "address"
        }
      ],
      "name": "transferOwnership",
      "outputs": [],
      "stateMutability": "nonpayable",
      "type": "function"
    },
    {
      "inputs": [
        {
          "internalType": "address",
          "name": "",
          "type": "address"
        },
        {
          "internalType": "uint256",
          "name": "",
          "type": "uint256"
        }
      ],
      "name": "userTips",
      "outputs": [
        {
          "internalType": "uint256",
          "name": "",
          "type": "uint256"
        }
      ],
      "stateMutability": "view",
      "type": "function"
    },
    {
      "inputs": [],
      "name": "withdraw",
      "outputs": [],
      "stateMutability": "nonpayable",
      "type": "function"
    },
    {
      "stateMutability": "payable",
      "type": "receive"
    }
  ],
  "bytecode": "0x6080604052348015600f57600080fd5b50336000806101000a81548173ffffffffffffffffffffffffffffffffffffffff021916908373ffffffffffffffffffffffffffffffffffffffff160217905550611fab8061005f6000396000f3fe6080604052600436106100a05760003560e01c80635b703f5c116100645780635b703f5c146101d45780638da5cb5b14610214578063a5c68c591461023f578063b4e9e2fe1461027f578063cb56393c146102bc578063f2fde38b146102d8576100e5565b806312065fe0146100ea578063274c6854146101155780633ccfd60b14610152578063523a7b0f1461016957806355f203b5146101a9576100e5565b366100e5576100e36040518060400160405280601381526020017f50726f70696e612073696e206d656e73616a6500000000000000000000000000815250610301565b005b600080fd5b3480156100f657600080fd5b506100ff61051b565b60405161010c9190611027565b60405180910390f35b34801561012157600080fd5b5061013c600480360381019061013791906110b4565b610523565b604051610149919061119f565b60405180910390f35b34801561015e57600080fd5b506101676105ba565b005b34801561017557600080fd5b50610190600480360381019061018b91906111ed565b6107cf565b6040516101a0949392919061142a565b60405180910390f35b3480156101b557600080fd5b506101be610b70565b6040516101cb9190611027565b60405180910390f35b3480156101e057600080fd5b506101fb60048036038101906101f691906111ed565b610b7a565b60405161020b94939291906114e4565b60405180910390f35b34801561022057600080fd5b50610229610d13565b6040516102369190611530565b60405180910390f35b34801561024b57600080fd5b50610266600480360381019061026191906111ed565b610d37565b60405161027694939291906114e4565b60405180910390f35b34801561028b57600080fd5b506102a660048036038101906102a1919061154b565b610e0f565b6040516102b39190611027565b60405180910390f35b6102d660048036038101906102d191906116c0565b610301565b005b3480156102e457600080fd5b506102ff60048036038101906102fa91906110b4565b610e40565b005b60003411610344576040517f08c379a000000000000000000000000000000000000000000000000000000000815260040161033b90611755565b60405180910390fd5b6000815111610388576040517f08c379a000000000000000000000000000000000000000000000000000000000815260040161037f906117c1565b60405180910390fd5b6001600081548092919061039b90611810565b919050555060405180608001604052803373ffffffffffffffffffffffffffffffffffffffff1681526020013481526020018281526020014281525060026000600154815260200190815260200160002060008201518160000160006101000a81548173ffffffffffffffffffffffffffffffffffffffff021916908373ffffffffffffffffffffffffffffffffffffffff1602179055506020820151816001015560408201518160020190816104529190611a64565b5060608201518160030155905050600360003373ffffffffffffffffffffffffffffffffffffffff1673ffffffffffffffffffffffffffffffffffffffff16815260200190815260200160002060015490806001815401808255809150506001900390600052602060002001600090919091909150553373ffffffffffffffffffffffffffffffffffffffff167f2edbe3c16cfdf7d59d3418a7bebc467863d7aee89bc4da07262936cf15fb49713483604051610510929190611b36565b60405180910390a250565b600047905090565b6060600360008373ffffffffffffffffffffffffffffffffffffffff1673ffffffffffffffffffffffffffffffffffffffff1681526020019081526020016000208054806020026020016040519081016040528092919081815260200182805480156105ae57602002820191906000526020600020905b81548152602001906001019080831161059a575b50505050509050919050565b60008054906101000a900473ffffffffffffffffffffffffffffffffffffffff1673ffffffffffffffffffffffffffffffffffffffff163373ffffffffffffffffffffffffffffffffffffffff1614610648576040517f08c379a000000000000000000000000000000000000000000000000000000000815260040161063f90611bd8565b60405180910390fd5b600047905060008111610690576040517f08c379a000000000000000000000000000000000000000000000000000000000815260040161068790611c44565b60405180910390fd5b60008060009054906101000a900473ffffffffffffffffffffffffffffffffffffffff1673ffffffffffffffffffffffffffffffffffffffff16826040516106d790611c95565b60006040518083038185875af1925050503d8060008114610714576040519150601f19603f3d011682016040523d82523d6000602084013e610719565b606091505b505090508061075d576040517f08c379a000000000000000000000000000000000000000000000000000000000815260040161075490611cf6565b60405180910390fd5b60008054906101000a900473ffffffffffffffffffffffffffffffffffffffff1673ffffffffffffffffffffffffffffffffffffffff167f7fcf532c15f0a6db0bd6d0e038bea71d30d808c7d98cb3bf7268a95bf5081b65836040516107c39190611027565b60405180910390a25050565b60608060608060008511610818576040517f08c379a000000000000000000000000000000000000000000000000000000000815260040161080f90611d62565b60405180910390fd5b60006001548611610829578561082d565b6001545b90508067ffffffffffffffff81111561084957610848611595565b5b6040519080825280602002602001820160405280156108775781602001602082028036833780820191505090505b5094508067ffffffffffffffff81111561089457610893611595565b5b6040519080825280602002602001820160405280156108c25781602001602082028036833780820191505090505b5093508067ffffffffffffffff8111156108df576108de611595565b5b60405190808252806020026020018201604052801561091257816020015b60608152602001906001900390816108fd5790505b5092508067ffffffffffffffff81111561092f5761092e611595565b5b60405190808252806020026020018201604052801561095d5781602001602082028036833780820191505090505b50915060005b81811015610b675760008160015461097b9190611d82565b90506000600260008381526020019081526020016000206040518060800160405290816000820160009054906101000a900473ffffffffffffffffffffffffffffffffffffffff1673ffffffffffffffffffffffffffffffffffffffff1673ffffffffffffffffffffffffffffffffffffffff16815260200160018201548152602001600282018054610a0d90611887565b80601f0160208091040260200160405190810160405280929190818152602001828054610a3990611887565b8015610a865780601f10610a5b57610100808354040283529160200191610a86565b820191906000526020600020905b815481529060010190602001808311610a6957829003601f168201915b5050505050815260200160038201548152505090508060000151888481518110610ab357610ab2611db6565b5b602002602001019073ffffffffffffffffffffffffffffffffffffffff16908173ffffffffffffffffffffffffffffffffffffffff16815250508060200151878481518110610b0557610b04611db6565b5b6020026020010181815250508060400151868481518110610b2957610b28611db6565b5b60200260200101819052508060600151858481518110610b4c57610b4b611db6565b5b60200260200101818152505050508080600101915050610963565b50509193509193565b6000600154905090565b600080606060008085118015610b9257506001548511155b610bd1576040517f08c379a0000000000000000000000000000000000000000000000000000000008152600401610bc890611e31565b60405180910390fd5b6000600260008781526020019081526020016000206040518060800160405290816000820160009054906101000a900473ffffffffffffffffffffffffffffffffffffffff1673ffffffffffffffffffffffffffffffffffffffff1673ffffffffffffffffffffffffffffffffffffffff16815260200160018201548152602001600282018054610c6190611887565b80601f0160208091040260200160405190810160405280929190818152602001828054610c8d90611887565b8015610cda5780601f10610caf57610100808354040283529160200191610cda565b820191906000526020600020905b815481529060010190602001808311610cbd57829003601f168201915b50505050508152602001600382015481525050905080600001518160200151826040015183606001519450945094509450509193509193565b60008054906101000a900473ffffffffffffffffffffffffffffffffffffffff1681565b60026020528060005260406000206000915090508060000160009054906101000a900473ffffffffffffffffffffffffffffffffffffffff1690806001015490806002018054610d8690611887565b80601f0160208091040260200160405190810160405280929190818152602001828054610db290611887565b8015610dff5780601f10610dd457610100808354040283529160200191610dff565b820191906000526020600020905b815481529060010190602001808311610de257829003601f168201915b5050505050908060030154905084565b60036020528160005260406000208181548110610e2b57600080fd5b90600052602060002001600091509150505481565b60008054906101000a900473ffffffffffffffffffffffffffffffffffffffff1673ffffffffffffffffffffffffffffffffffffffff163373ffffffffffffffffffffffffffffffffffffffff1614610ece576040517f08c379a0000000000000000000000000000000000000000000000000000000008152600401610ec590611bd8565b60405180910390fd5b600073ffffffffffffffffffffffffffffffffffffffff168173ffffffffffffffffffffffffffffffffffffffff1603610f3d576040517f08c379a0000000000000000000000000000000000000000000000000000000008152600401610f3490611ec3565b60405180910390fd5b60008054906101000a900473ffffffffffffffffffffffffffffffffffffffff1673ffffffffffffffffffffffffffffffffffffffff168173ffffffffffffffffffffffffffffffffffffffff1603610fcb576040517f08c379a0000000000000000000000000000000000000000000000000000000008152600401610fc290611f55565b60405180910390fd5b806000806101000a81548173ffffffffffffffffffffffffffffffffffffffff021916908373ffffffffffffffffffffffffffffffffffffffff16021790555050565b6000819050919050565b6110218161100e565b82525050565b600060208201905061103c6000830184611018565b92915050565b6000604051905090565b600080fd5b600080fd5b600073ffffffffffffffffffffffffffffffffffffffff82169050919050565b600061108182611056565b9050919050565b61109181611076565b811461109c57600080fd5b50565b6000813590506110ae81611088565b92915050565b6000602082840312156110ca576110c961104c565b5b60006110d88482850161109f565b91505092915050565b600081519050919050565b600082825260208201905092915050565b6000819050602082019050919050565b6111168161100e565b82525050565b6000611128838361110d565b60208301905092915050565b6000602082019050919050565b600061114c826110e1565b61115681856110ec565b9350611161836110fd565b8060005b83811015611192578151611179888261111c565b975061118483611134565b925050600181019050611165565b5085935050505092915050565b600060208201905081810360008301526111b98184611141565b905092915050565b6111ca8161100e565b81146111d557600080fd5b50565b6000813590506111e7816111c1565b92915050565b6000602082840312156112035761120261104c565b5b6000611211848285016111d8565b91505092915050565b600081519050919050565b600082825260208201905092915050565b6000819050602082019050919050565b61124f81611076565b82525050565b60006112618383611246565b60208301905092915050565b6000602082019050919050565b60006112858261121a565b61128f8185611225565b935061129a83611236565b8060005b838110156112cb5781516112b28882611255565b97506112bd8361126d565b92505060018101905061129e565b5085935050505092915050565b600081519050919050565b600082825260208201905092915050565b6000819050602082019050919050565b600081519050919050565b600082825260208201905092915050565b60005b8381101561133e578082015181840152602081019050611323565b60008484015250505050565b6000601f19601f8301169050919050565b600061136682611304565b611370818561130f565b9350611380818560208601611320565b6113898161134a565b840191505092915050565b60006113a0838361135b565b905092915050565b6000602082019050919050565b60006113c0826112d8565b6113ca81856112e3565b9350836020820285016113dc856112f4565b8060005b8581101561141857848403895281516113f98582611394565b9450611404836113a8565b925060208a019950506001810190506113e0565b50829750879550505050505092915050565b60006080820190508181036000830152611444818761127a565b905081810360208301526114588186611141565b9050818103604083015261146c81856113b5565b905081810360608301526114808184611141565b905095945050505050565b61149481611076565b82525050565b600082825260208201905092915050565b60006114b682611304565b6114c0818561149a565b93506114d0818560208601611320565b6114d98161134a565b840191505092915050565b60006080820190506114f9600083018761148b565b6115066020830186611018565b818103604083015261151881856114ab565b90506115276060830184611018565b95945050505050565b6000602082019050611545600083018461148b565b92915050565b600080604083850312156115625761156161104c565b5b60006115708582860161109f565b9250506020611581858286016111d8565b9150509250929050565b600080fd5b600080fd5b7f4e487b7100000000000000000000000000000000000000000000000000000000600052604160045260246000fd5b6115cd8261134a565b810181811067ffffffffffffffff821117156115ec576115eb611595565b5b80604052505050565b60006115ff611042565b905061160b82826115c4565b919050565b600067ffffffffffffffff82111561162b5761162a611595565b5b6116348261134a565b9050602081019050919050565b82818337600083830152505050565b600061166361165e84611610565b6115f5565b90508281526020810184848401111561167f5761167e611590565b5b61168a848285611641565b509392505050565b600082601f8301126116a7576116a661158b565b5b81356116b7848260208601611650565b91505092915050565b6000602082840312156116d6576116d561104c565b5b600082013567ffffffffffffffff8111156116f4576116f3611051565b5b61170084828501611692565b91505092915050565b7f4c612070726f70696e61206465626520736572206d61796f7220612030000000600082015250565b600061173f601d8361149a565b915061174a82611709565b602082019050919050565b6000602082019050818103600083015261176e81611732565b9050919050565b7f456c206d656e73616a65206e6f20707565646520657374617220766163696f00600082015250565b60006117ab601f8361149a565b91506117b682611775565b602082019050919050565b600060208201905081810360008301526117da8161179e565b9050919050565b7f4e487b7100000000000000000000000000000000000000000000000000000000600052601160045260246000fd5b600061181b8261100e565b91507fffffffffffffffffffffffffffffffffffffffffffffffffffffffffffffffff820361184d5761184c6117e1565b5b600182019050919050565b7f4e487b7100000000000000000000000000000000000000000000000000000000600052602260045260246000fd5b6000600282049050600182168061189f57607f821691505b6020821081036118b2576118b1611858565b5b50919050565b60008190508160005260206000209050919050565b60006020601f8301049050919050565b600082821b905092915050565b60006008830261191a7fffffffffffffffffffffffffffffffffffffffffffffffffffffffffffffffff826118dd565b61192486836118dd565b95508019841693508086168417925050509392505050565b6000819050919050565b600061196161195c6119578461100e565b61193c565b61100e565b9050919050565b6000819050919050565b61197b83611946565b61198f61198782611968565b8484546118ea565b825550505050565b600090565b6119a4611997565b6119af818484611972565b505050565b5b818110156119d3576119c860008261199c565b6001810190506119b5565b5050565b601f821115611a18576119e9816118b8565b6119f2846118cd565b81016020851015611a01578190505b611a15611a0d856118cd565b8301826119b4565b50505b505050565b600082821c905092915050565b6000611a3b60001984600802611a1d565b1980831691505092915050565b6000611a548383611a2a565b9150826002028217905092915050565b611a6d82611304565b67ffffffffffffffff811115611a8657611a85611595565b5b611a908254611887565b611a9b8282856119d7565b600060209050601f831160018114611ace5760008415611abc578287015190505b611ac68582611a48565b865550611b2e565b601f198416611adc866118b8565b60005b82811015611b0457848901518255600182019150602085019450602081019050611adf565b86831015611b215784890151611b1d601f891682611a2a565b8355505b6001600288020188555050505b505050505050565b6000604082019050611b4b6000830185611018565b8181036020830152611b5d81846114ab565b90509392505050565b7f536f6c6f20656c206f776e657220707565646520656a6563757461722065737460008201527f612066756e63696f6e0000000000000000000000000000000000000000000000602082015250565b6000611bc260298361149a565b9150611bcd82611b66565b604082019050919050565b60006020820190508181036000830152611bf181611bb5565b9050919050565b7f4e6f2068617920666f6e646f7320706172612072657469726172000000000000600082015250565b6000611c2e601a8361149a565b9150611c3982611bf8565b602082019050919050565b60006020820190508181036000830152611c5d81611c21565b9050919050565b600081905092915050565b50565b6000611c7f600083611c64565b9150611c8a82611c6f565b600082019050919050565b6000611ca082611c72565b9150819050919050565b7f46616c6c6f20656e206c61207472616e73666572656e63696100000000000000600082015250565b6000611ce060198361149a565b9150611ceb82611caa565b602082019050919050565b60006020820190508181036000830152611d0f81611cd3565b9050919050565b7f456c20636f756e74206465626520736572206d61796f72206120300000000000600082015250565b6000611d4c601b8361149a565b9150611d5782611d16565b602082019050919050565b60006020820190508181036000830152611d7b81611d3f565b9050919050565b6000611d8d8261100e565b9150611d988361100e565b9250828203905081811115611db057611daf6117e1565b5b92915050565b7f4e487b7100000000000000000000000000000000000000000000000000000000600052603260045260246000fd5b7f49442064652070726f70696e6120696e76616c69646f00000000000000000000600082015250565b6000611e1b60168361149a565b9150611e2682611de5565b602082019050919050565b60006020820190508181036000830152611e4a81611e0e565b9050919050565b7f456c206e7565766f206f776e6572206e6f20707565646520736572206c61206460008201527f6972656363696f6e206365726f00000000000000000000000000000000000000602082015250565b6000611ead602d8361149a565b9150611eb882611e51565b604082019050919050565b60006020820190508181036000830152611edc81611ea0565b9050919050565b7f456c206e7565766f206f776e6572206465626520736572206469666572656e7460008201527f6520616c2061637475616c000000000000000000000000000000000000000000602082015250565b6000611f3f602b8361149a565b9150611f4a82611ee3565b604082019050919050565b60006020820190508181036000830152611f6e81611f32565b905091905056fea264697066735822122026687a138530d9328b4f2099d86308741aa08df6ba8cecc1e9ddfe424c496a2764736f6c634300081c0033",
  "linkReferences": {},
  "deployedLinkReferences": {}
}